{"abi":[{"type":"function","name":"mint","inputs":[{"name":"poolAddress_","type":"address","internalType":"address"},{"name":"lowerTick","type":"int24","internalType":"int24"},{"name":"upperTick","type":"int24","internalType":"int24"},{"name":"liquidity","type":"uint128","internalType":"uint128"},{"name":"data","type":"bytes","internalType":"bytes"}],"outputs":[{"name":"","type":"uint256","internalType":"uint256"},{"name":"","type":"uint256","internalType":"uint256"}],"stateMutability":"nonpayable"},{"type":"function","name":"swap","inputs":[{"name":"poolAddress_","type":"address","internalType":"address"},{"name":"data","type":"bytes","internalType":"bytes"}],"outputs":[{"name":"","type":"int256","internalType":"int256"},{"name":"","type":"int256","internalType":"int256"}],"stateMutability":"nonpayable"},{"type":"function","name":"uniswapV3MintCallback","inputs":[{"name":"amount0","type":"uint256","internalType":"uint256"},{"name":"amount1","type":"uint256","internalType":"uint256"},{"name":"data","type":"bytes","internalType":"bytes"}],"outputs":[],"stateMutability":"nonpayable"},{"type":"function","name":"uniswapV3SwapCallback","inputs":[{"name":"amount0","type":"int256","internalType":"int256"},{"name":"amount1","type":"int256","internalType":"int256"},{"name":"data","type":"bytes","internalType":"bytes"}],"outputs":[],"stateMutability":"nonpayable"}],"bytecode":{"object":"0x608060405234801561001057600080fd5b50610725806100206000396000f3fe608060405234801561001057600080fd5b506004361061004c5760003560e01c80633c8a7d8d14610051578063d34879971461007d578063e354733514610092578063fa461e33146100a5575b600080fd5b61006461005f366004610424565b6100b8565b6040805192835260208301919091520160405180910390f35b61009061008b3660046104b8565b610142565b005b6100646100a036600461050b565b610250565b6100906100b33660046104b8565b6102d1565b600080876001600160a01b0316633c8a7d8d3389898989896040518763ffffffff1660e01b81526004016100f196959493929190610587565b60408051808303816000875af115801561010f573d6000803e3d6000fd5b505050506040513d601f19601f8201168201806040525081019061013391906105d6565b91509150965096945050505050565b6000610150828401846105fa565b805160408083015190516323b872dd60e01b81529293506001600160a01b03909116916323b872dd916101899133908a90600401610674565b6020604051808303816000875af11580156101a8573d6000803e3d6000fd5b505050506040513d601f19601f820116820180604052508101906101cc9190610698565b5080602001516001600160a01b03166323b872dd826040015133876040518463ffffffff1660e01b815260040161020593929190610674565b6020604051808303816000875af1158015610224573d6000803e3d6000fd5b505050506040513d601f19601f820116820180604052508101906102489190610698565b505050505050565b600080846001600160a01b031663e35473353386866040518463ffffffff1660e01b8152600401610283939291906106c1565b60408051808303816000875af11580156102a1573d6000803e3d6000fd5b505050506040513d601f19601f820116820180604052508101906102c591906105d6565b91509150935093915050565b60006102df828401846105fa565b9050600085131561036557805160408083015190516323b872dd60e01b81526001600160a01b03909216916323b872dd916103209133908a90600401610674565b6020604051808303816000875af115801561033f573d6000803e3d6000fd5b505050506040513d601f19601f820116820180604052508101906103639190610698565b505b60008413156103a65780602001516001600160a01b03166323b872dd826040015133876040518463ffffffff1660e01b815260040161020593929190610674565b5050505050565b80356001600160a01b03811681146103c457600080fd5b919050565b8035600281900b81146103c457600080fd5b60008083601f8401126103ed57600080fd5b50813567ffffffffffffffff81111561040557600080fd5b60208301915083602082850101111561041d57600080fd5b9250929050565b60008060008060008060a0878903121561043d57600080fd5b610446876103ad565b9550610454602088016103c9565b9450610462604088016103c9565b935060608701356001600160801b038116811461047e57600080fd5b9250608087013567ffffffffffffffff81111561049a57600080fd5b6104a689828a016103db565b979a9699509497509295939492505050565b600080600080606085870312156104ce57600080fd5b8435935060208501359250604085013567ffffffffffffffff8111156104f357600080fd5b6104ff878288016103db565b95989497509550505050565b60008060006040848603121561052057600080fd5b610529846103ad565b9250602084013567ffffffffffffffff81111561054557600080fd5b610551868287016103db565b9497909650939450505050565b81835281816020850137506000828201602090810191909152601f909101601f19169091010190565b60018060a01b03871681528560020b60208201528460020b60408201526001600160801b038416606082015260a0608082015260006105ca60a08301848661055e565b98975050505050505050565b600080604083850312156105e957600080fd5b505080516020909101519092909150565b60006060828403121561060c57600080fd5b6040516060810181811067ffffffffffffffff8211171561063d57634e487b7160e01b600052604160045260246000fd5b604052610649836103ad565b8152610657602084016103ad565b6020820152610668604084016103ad565b60408201529392505050565b6001600160a01b039384168152919092166020820152604081019190915260600190565b6000602082840312156106aa57600080fd5b815180151581146106ba57600080fd5b9392505050565b6001600160a01b03841681526040602082018190526000906106e6908301848661055e565b9594505050505056fea26469706673582212202662410e2f97122774c4cd361fc32d402ad7dcc2e9566bcb06ffa7bf4624faf364736f6c63430008180033","linkReferences":{}},"methodIdentifiers":{"mint(address,int24,int24,uint128,bytes)":"3c8a7d8d","swap(address,bytes)":"e3547335","uniswapV3MintCallback(uint256,uint256,bytes)":"d3487997","uniswapV3SwapCallback(int256,int256,bytes)":"fa461e33"},"id":27}